{
  "transactions": [
    {
      "hash": "0x4e126e83f6421107fb2efad22c48f2e3461295dcc4c3e6b4e9f5c5bd7faec8c8",
      "transactionType": "CALL",
      "contractName": null,
      "contractAddress": "0x261d07040d300a454c6567ce0ed4175a5ac73291",
      "function": "propose(bytes32,string,bytes)",
      "arguments": [
        "0x071f0735e57c7c959f7eb7f7182f79d4d8726c920c7df7bc1624d8e30b13bc83",
        "Increase Q3 Marketing Budget by 50 BGT",
        "0x000000000000000000000000000000000000000000000000000000000000000100000000000000000000000000000000000000000000000000000000000000a000000000000000000000000000000000000000000000000000000000000000e00000000000000000000000000000000000000000000000000000000000000120000000000000000000000000000000000000000000000000000000000000022000000000000000000000000000000000000000000000000000000000000000135133204d61726b6574696e672042756467657400000000000000000000000000000000000000000000000000000000000000000000000000000000000000000c697066733a2f2f516d2e2e2e0000000000000000000000000000000000000000000000000000000000000000000000000000000000000000000000000000008000000000000000000000000000000000000000000000000000000000000000a000000000000000000000000000000000000000000000000000000000000000c000000000000000000000000000000000000000000000000000000000000000e00000000000000000000000000000000000000000000000000000000000000000000000000000000000000000000000000000000000000000000000000000000000000000000000000000000000000000000000000000000000000000000000000000000000000000000000000000000000000000000000000000000000000000000000000000000000000000000000000000000000000000000000000000000000000000000000000000000000000000000000000000000000000000000000a000000000000000000000000000000000000000000000000000000000000000c0000000000000000000000000000000000000000000000000000000000000000000000000000000000000000000000000000000000000000000000000000000e0000000000000000000000000000000000000000000000000000000000000000000000000000000000000000000000000000000000000000000000000000000000000000000000000000000000000000000000000000000000000000000000000"
      ],
      "transaction": {
        "from": "0x72f41e41b4c080989da452bc8b9f6858b66e712e",
        "to": "0x261d07040d300a454c6567ce0ed4175a5ac73291",
        "gas": "0x6f4d9",
        "value": "0x0",
        "input": "0x3950518c071f0735e57c7c959f7eb7f7182f79d4d8726c920c7df7bc1624d8e30b13bc83000000000000000000000000000000000000000000000000000000000000006000000000000000000000000000000000000000000000000000000000000000c00000000000000000000000000000000000000000000000000000000000000026496e637265617365205133204d61726b6574696e67204275646765742062792035302042475400000000000000000000000000000000000000000000000000000000000000000000000000000000000000000000000000000000000000000320000000000000000000000000000000000000000000000000000000000000000100000000000000000000000000000000000000000000000000000000000000a000000000000000000000000000000000000000000000000000000000000000e00000000000000000000000000000000000000000000000000000000000000120000000000000000000000000000000000000000000000000000000000000022000000000000000000000000000000000000000000000000000000000000000135133204d61726b6574696e672042756467657400000000000000000000000000000000000000000000000000000000000000000000000000000000000000000c697066733a2f2f516d2e2e2e0000000000000000000000000000000000000000000000000000000000000000000000000000000000000000000000000000008000000000000000000000000000000000000000000000000000000000000000a000000000000000000000000000000000000000000000000000000000000000c000000000000000000000000000000000000000000000000000000000000000e00000000000000000000000000000000000000000000000000000000000000000000000000000000000000000000000000000000000000000000000000000000000000000000000000000000000000000000000000000000000000000000000000000000000000000000000000000000000000000000000000000000000000000000000000000000000000000000000000000000000000000000000000000000000000000000000000000000000000000000000000000000000000000000000a000000000000000000000000000000000000000000000000000000000000000c0000000000000000000000000000000000000000000000000000000000000000000000000000000000000000000000000000000000000000000000000000000e0000000000000000000000000000000000000000000000000000000000000000000000000000000000000000000000000000000000000000000000000000000000000000000000000000000000000000000000000000000000000000000000000",
        "nonce": "0x22",
        "chainId": "0xa869"
      },
      "additionalContracts": [],
      "isFixedGasLimit": false
    }
  ],
  "receipts": [
    {
      "status": "0x1",
      "cumulativeGasUsed": "0x5094e",
      "logs": [
        {
          "address": "0x261d07040d300a454c6567ce0ed4175a5ac73291",
          "topics": [
            "0xe5e40c160f3b9a59e91b766f139aa9c1aea545e7be1debf5b377c9c1a88b9a79",
            "0x071f0735e57c7c959f7eb7f7182f79d4d8726c920c7df7bc1624d8e30b13bc83",
            "0x00000000000000000000000072f41e41b4c080989da452bc8b9f6858b66e712e"
          ],
          "data": "0x0000000000000000000000000000000000000000000000000000000068bc6f990000000000000000000000000000000000000000000000000000000068c3071900000000000000000000000000000000000000000000000000000000000000600000000000000000000000000000000000000000000000000000000000000026496e637265617365205133204d61726b6574696e6720427564676574206279203530204247540000000000000000000000000000000000000000000000000000",
          "blockHash": "0xc4aaff6cec9c3c3645911dd858cb61df156e8f8c6d18e96dad606e5457aff89f",
          "blockNumber": "0x2ba49bb",
          "transactionHash": "0x4e126e83f6421107fb2efad22c48f2e3461295dcc4c3e6b4e9f5c5bd7faec8c8",
          "transactionIndex": "0x0",
          "logIndex": "0x0",
          "removed": false
        },
        {
          "address": "0x261d07040d300a454c6567ce0ed4175a5ac73291",
          "topics": [
            "0x448a125bbf9294072a9d053676d3aaf5e507229e40a25b7efea025d97ab72f1d",
            "0x071f0735e57c7c959f7eb7f7182f79d4d8726c920c7df7bc1624d8e30b13bc83",
            "0x00000000000000000000000072f41e41b4c080989da452bc8b9f6858b66e712e",
            "0x0000000000000000000000000000000000000000000000000000000000000001"
          ],
          "data": "0x0000000000000000000000000000000000000000000000000000000068bc6f990000000000000000000000000000000000000000000000000000000068c30719",
          "blockHash": "0xc4aaff6cec9c3c3645911dd858cb61df156e8f8c6d18e96dad606e5457aff89f",
          "blockNumber": "0x2ba49bb",
          "transactionHash": "0x4e126e83f6421107fb2efad22c48f2e3461295dcc4c3e6b4e9f5c5bd7faec8c8",
          "transactionIndex": "0x0",
          "logIndex": "0x1",
          "removed": false
        }
      ],
      "logsBloom": "0x00000800000000000000000000000000000000000000000000000000000000000100000000000000000000000000000000000000000000008000004000040000000000000000010000000000004400000000000000040000000000000100000000000200020000000000000000000100000000000000000000000000000000000000000000000000000000000000000000000000000000000000000000000000000000000000000000000000000000000000000010000000000000000000000004000000000000000000000000100000000000000000000000000000000040000000000000000000000000000000000000000000000004000000000000000000",
      "type": "0x2",
      "transactionHash": "0x4e126e83f6421107fb2efad22c48f2e3461295dcc4c3e6b4e9f5c5bd7faec8c8",
      "transactionIndex": "0x0",
      "blockHash": "0xc4aaff6cec9c3c3645911dd858cb61df156e8f8c6d18e96dad606e5457aff89f",
      "blockNumber": "0x2ba49bb",
      "gasUsed": "0x5094e",
      "effectiveGasPrice": "0x3",
      "from": "0x72f41e41b4c080989da452bc8b9f6858b66e712e",
      "to": "0x261d07040d300a454c6567ce0ed4175a5ac73291",
      "contractAddress": null
    }
  ],
  "libraries": [],
  "pending": [],
  "returns": {},
  "timestamp": 1757179802,
  "chain": 43113,
  "commit": "053446c"
}