{
  "transactions": [
    {
      "hash": "0x6add049506f98cee710c4fa01b8fcf118b6a140800f225f5b5215e8be1bfe90f",
      "transactionType": "CALL",
      "contractName": null,
      "contractAddress": "0x65cdaa555e6b53707e583cf55fb718d3724a0543",
      "function": "approve(address,uint256)",
      "arguments": [
        "0x5030651FC0C87e03A4AbC56D0E4d7Fc8205628F1",
        "100000000000000000000"
      ],
      "transaction": {
        "from": "0x72f41e41b4c080989da452bc8b9f6858b66e712e",
        "to": "0x65cdaa555e6b53707e583cf55fb718d3724a0543",
        "gas": "0xf83b",
        "value": "0x0",
        "input": "0x095ea7b30000000000000000000000005030651fc0c87e03a4abc56d0e4d7fc8205628f10000000000000000000000000000000000000000000000056bc75e2d63100000",
        "nonce": "0x1c",
        "chainId": "0xa869"
      },
      "additionalContracts": [],
      "isFixedGasLimit": false
    },
    {
      "hash": "0xdc6e1640af3c11a2551a93c81d59ebabd967a6858074d2e216db37a2a5fe21a0",
      "transactionType": "CALL",
      "contractName": null,
      "contractAddress": "0x5030651fc0c87e03a4abc56d0e4d7fc8205628f1",
      "function": "deposit(uint256,address,uint256[7])",
      "arguments": [
        "100000000000000000000",
        "0x65CDaa555e6B53707E583cF55FB718d3724a0543",
        "[31337, 21139772975480293722114350308782752296729293671846568899306676203013480272218, 2390254713070255989319085409741733535856751730620877964421039371149382899586, 18931351235086622402032827747115362386859480978226383649260800615739626737477, 2853437796489731744657050203283650604639798575201613806495740588702289776457, 11525971716258564534262414148566813053530219991517241051455992065948392878869, 18465817641994839566080168631893207259062488369206513663544902637893327707230]"
      ],
      "transaction": {
        "from": "0x72f41e41b4c080989da452bc8b9f6858b66e712e",
        "to": "0x5030651fc0c87e03a4abc56d0e4d7fc8205628f1",
        "gas": "0x14b385",
        "value": "0x0",
        "input": "0x82f09ea20000000000000000000000000000000000000000000000056bc75e2d6310000000000000000000000000000065cdaa555e6b53707e583cf55fb718d3724a05430000000000000000000000000000000000000000000000000000000000007a692ebcafff72a7c371820ef6f0b2f3b73b66d5d43d20395c69601bb82d67f2515a0548d612d5948c43122493428a33f86668d1219b46e8f930fffd67499451d78229dac3dc6b89d893218d4480d7f3722ad2605560fe6ad1e060ad4d7e8e39cf45064efd1240e13b310c3f3e40f61d4765d4c00f7938a6cbba2e7bf1f23fc24f49197b7803d371cd224785ccd24acea95e2be69ce1b9b0cac7dd7bb0240553f31528d3484bc06890e908e46b7cb2d4759bc1596d44effb8518f7f1f1e1867adc5e",
        "nonce": "0x1d",
        "chainId": "0xa869"
      },
      "additionalContracts": [],
      "isFixedGasLimit": false
    }
  ],
  "receipts": [
    {
      "status": "0x1",
      "cumulativeGasUsed": "0x329a9",
      "logs": [
        {
          "address": "0x65cdaa555e6b53707e583cf55fb718d3724a0543",
          "topics": [
            "0x8c5be1e5ebec7d5bd14f71427d1e84f3dd0314c0f7b2291e5b200ac8c7c3b925",
            "0x00000000000000000000000072f41e41b4c080989da452bc8b9f6858b66e712e",
            "0x0000000000000000000000005030651fc0c87e03a4abc56d0e4d7fc8205628f1"
          ],
          "data": "0x0000000000000000000000000000000000000000000000056bc75e2d63100000",
          "blockHash": "0x5cb313ec122727501c6bcf29b14fd4311575bae956dc86adb31356c9626eba98",
          "blockNumber": "0x2b6d6a9",
          "transactionHash": "0x6add049506f98cee710c4fa01b8fcf118b6a140800f225f5b5215e8be1bfe90f",
          "transactionIndex": "0x1",
          "logIndex": "0x4",
          "removed": false
        }
      ],
      "logsBloom": "0x00000000000000000008000000000000000000000000000000000000000000000000000000000000000000000000000000000000000000000000000000200000000000000010000000000000000000000000000000000000000000000000000000000200020000000000000000000000000000000000000000000000000000000000000000000000000000000000000000000000000000000000000000000000020000000000000000000000000000000000000000000000000000000001000000000000000000000000004000000000000000000000000000000000000000040010000000000000000000000000000000000000000004000000800000000000",
      "type": "0x2",
      "transactionHash": "0x6add049506f98cee710c4fa01b8fcf118b6a140800f225f5b5215e8be1bfe90f",
      "transactionIndex": "0x1",
      "blockHash": "0x5cb313ec122727501c6bcf29b14fd4311575bae956dc86adb31356c9626eba98",
      "blockNumber": "0x2b6d6a9",
      "gasUsed": "0xb3b8",
      "effectiveGasPrice": "0x2",
      "from": "0x72f41e41b4c080989da452bc8b9f6858b66e712e",
      "to": "0x65cdaa555e6b53707e583cf55fb718d3724a0543",
      "contractAddress": null
    },
    {
      "status": "0x1",
      "cumulativeGasUsed": "0x116404",
      "logs": [
        {
          "address": "0x65cdaa555e6b53707e583cf55fb718d3724a0543",
          "topics": [
            "0xddf252ad1be2c89b69c2b068fc378daa952ba7f163c4a11628f55a4df523b3ef",
            "0x00000000000000000000000072f41e41b4c080989da452bc8b9f6858b66e712e",
            "0x0000000000000000000000005030651fc0c87e03a4abc56d0e4d7fc8205628f1"
          ],
          "data": "0x0000000000000000000000000000000000000000000000056bc75e2d63100000",
          "blockHash": "0x5cb313ec122727501c6bcf29b14fd4311575bae956dc86adb31356c9626eba98",
          "blockNumber": "0x2b6d6a9",
          "transactionHash": "0xdc6e1640af3c11a2551a93c81d59ebabd967a6858074d2e216db37a2a5fe21a0",
          "transactionIndex": "0x2",
          "logIndex": "0x5",
          "removed": false
        },
        {
          "address": "0x5030651fc0c87e03a4abc56d0e4d7fc8205628f1",
          "topics": [
            "0x36af321ec8d3c75236829c5317affd40ddb308863a1236d2d277a4025cccee1e",
            "0x00000000000000000000000072f41e41b4c080989da452bc8b9f6858b66e712e"
          ],
          "data": "0x0000000000000000000000000000000000000000000000056bc75e2d6310000000000000000000000000000000000000000000000000000000000000000000000000000000000000000000000000000000000000000000000000000000000001",
          "blockHash": "0x5cb313ec122727501c6bcf29b14fd4311575bae956dc86adb31356c9626eba98",
          "blockNumber": "0x2b6d6a9",
          "transactionHash": "0xdc6e1640af3c11a2551a93c81d59ebabd967a6858074d2e216db37a2a5fe21a0",
          "transactionIndex": "0x2",
          "logIndex": "0x6",
          "removed": false
        }
      ],
      "logsBloom": "0x00000000000000000008000000000000000000000000000000000000000000000000002000000000000000000000000000000000000000000000000000000000000000000010000000000208000000000000000000000000000000000000000000000200020000000000000000000000010000000000000000000010000000000000000000000000000000000000000000000000000000000000000000010000000000000000000000000000000000000000000000000000000000000001000000000002000000000000004000000000000000000000000000000000000000040000000000000001000000000000000000000000000004000000800080000000",
      "type": "0x2",
      "transactionHash": "0xdc6e1640af3c11a2551a93c81d59ebabd967a6858074d2e216db37a2a5fe21a0",
      "transactionIndex": "0x2",
      "blockHash": "0x5cb313ec122727501c6bcf29b14fd4311575bae956dc86adb31356c9626eba98",
      "blockNumber": "0x2b6d6a9",
      "gasUsed": "0xe3a5b",
      "effectiveGasPrice": "0x2",
      "from": "0x72f41e41b4c080989da452bc8b9f6858b66e712e",
      "to": "0x5030651fc0c87e03a4abc56d0e4d7fc8205628f1",
      "contractAddress": null
    }
  ],
  "libraries": [],
  "pending": [],
  "returns": {},
  "timestamp": 1756744886,
  "chain": 43113,
  "commit": "053446c"
}