{
  "transactions": [
    {
      "hash": "0x907ef795a83e990b6e097c980bbc64c116125e538836ad74c230be00d5840f6a",
      "transactionType": "CALL",
      "contractName": null,
      "contractAddress": "0x0ba9dcf926fa3b5c52275007932c4e85f3804f97",
      "function": "register(((uint256[2],uint256[2][2],uint256[2]),uint256[5]))",
      "arguments": [
        "(([5176707554008935087503167470232360676778209832584974245979545453922187877446, 13814801659292921608125914145143717256418399488989609339400714183933568855819], [[2788486134182039517866259972072770945371795205814471515054986850001770637094, 12451041046035247619540279308197439431651820844032526093187807226179811167934], [8063708858684741044771630034047218289735637923799980400017807382200254411554, 16686477256165522405350565725269215724155727089337926523495188019829255713053]], [1088883546782249146123875325054708880799626749391259253399483728945531793606, 18304954872506928479771387852953839863840726573964211065146539796941253395546]), [2390254713070255989319085409741733535856751730620877964421039371149382899586, 18931351235086622402032827747115362386859480978226383649260800615739626737477, 656268965429551548955533955861655578020848496942, 43113, 9095455556563533220526729035208855442796145957720584485194717491792997152986])"
      ],
      "transaction": {
        "from": "0x72f41e41b4c080989da452bc8b9f6858b66e712e",
        "to": "0x0ba9dcf926fa3b5c52275007932c4e85f3804f97",
        "gas": "0x735a2",
        "value": "0x0",
        "input": "0x37729b5c0b71e9a2ff140e714442ede10218f45660bddee9bf597e1570e60f00c9e61c461e8ae690da0d0234fe6b0acb4b0cee347ad800dd33bb972b929b641493c9af0b062a3a2b333cc68d8878e9f53eaf1f363b2cb7e45262984d1428bffd6c19e7261b870a1c4ddd17b2266025ac29ec459446a0febc2c14d4f25aafbd6cf9364ebe11d3e5c0f5b9715db7f6f6548d44f947457362dcc6b75e27db1bf99a7fc7332224e43620b7fff2fcec1bd5a20651fd68c32c117bc8d2e394e8c523e85ec0311d026849477db6cc5dd3a3e3c910a128a5403110d7468c851b72620caa21fb30c628783cc002f72854a2a80bebc11d480d6a2261f7528807ace30df30ad6e8445a0548d612d5948c43122493428a33f86668d1219b46e8f930fffd67499451d78229dac3dc6b89d893218d4480d7f3722ad2605560fe6ad1e060ad4d7e8e39cf4500000000000000000000000072f41e41b4c080989da452bc8b9f6858b66e712e000000000000000000000000000000000000000000000000000000000000a869141bd86cefe57c19073ceca7453d2d42f05ac2f33b97c87a1423407ea1c278da",
        "nonce": "0x1b",
        "chainId": "0xa869"
      },
      "additionalContracts": [],
      "isFixedGasLimit": false
    }
  ],
  "receipts": [
    {
      "status": "0x1",
      "cumulativeGasUsed": "0x86ab6",
      "logs": [
        {
          "address": "0x0ba9dcf926fa3b5c52275007932c4e85f3804f97",
          "topics": [
            "0xa29f706235c83d457380cf21ecc4ba909fa846879eea28d1b12e4e3b82aa7590",
            "0x00000000000000000000000072f41e41b4c080989da452bc8b9f6858b66e712e"
          ],
          "data": "0x0548d612d5948c43122493428a33f86668d1219b46e8f930fffd67499451d78229dac3dc6b89d893218d4480d7f3722ad2605560fe6ad1e060ad4d7e8e39cf45",
          "blockHash": "0xa61edaf64d7938f389a3203774e250606f5dd7dbbf4d5cf5e07671409187ccd5",
          "blockNumber": "0x2b6d2c8",
          "transactionHash": "0x907ef795a83e990b6e097c980bbc64c116125e538836ad74c230be00d5840f6a",
          "transactionIndex": "0x1",
          "logIndex": "0x8",
          "removed": false
        }
      ],
      "logsBloom": "0x00400000000000000000000000000000000000000000000000000000000000000000000000040000000000000000000000000000000000000000000000000000000000000000000000000000000000000000000000000000000000000000000000000200020000000000000000000000000000000000000000000000000000000000000000000000000000000000000000000000000001000000000000000000000000000000000000000000000000000000000000000000000000000000000000000000000000000000001800000000000000000000000000000000000000000000000000000000000000000000000000000000000004000000000002000000",
      "type": "0x2",
      "transactionHash": "0x907ef795a83e990b6e097c980bbc64c116125e538836ad74c230be00d5840f6a",
      "transactionIndex": "0x1",
      "blockHash": "0xa61edaf64d7938f389a3203774e250606f5dd7dbbf4d5cf5e07671409187ccd5",
      "blockNumber": "0x2b6d2c8",
      "gasUsed": "0x4edf9",
      "effectiveGasPrice": "0x2",
      "from": "0x72f41e41b4c080989da452bc8b9f6858b66e712e",
      "to": "0x0ba9dcf926fa3b5c52275007932c4e85f3804f97",
      "contractAddress": null
    }
  ],
  "libraries": [],
  "pending": [],
  "returns": {},
  "timestamp": 1756743076,
  "chain": 43113,
  "commit": "053446c"
}